{"abi":[{"type":"constructor","inputs":[],"stateMutability":"nonpayable"},{"type":"function","name":"addRoute","inputs":[{"name":"route","type":"tuple","internalType":"struct Route","components":[{"name":"command","type":"string","internalType":"string"},{"name":"name","type":"string","internalType":"string"},{"name":"url","type":"string","internalType":"string"},{"name":"subRoutes","type":"string[]","internalType":"string[]"},{"name":"isValue","type":"bool","internalType":"bool"}]}],"outputs":[{"name":"","type":"uint256","internalType":"uint256"}],"stateMutability":"nonpayable"},{"type":"function","name":"deleteRoute","inputs":[{"name":"id","type":"uint256","internalType":"uint256"}],"outputs":[],"stateMutability":"nonpayable"},{"type":"function","name":"getRoute","inputs":[{"name":"id","type":"uint256","internalType":"uint256"}],"outputs":[{"name":"","type":"tuple","internalType":"struct Route","components":[{"name":"command","type":"string","internalType":"string"},{"name":"name","type":"string","internalType":"string"},{"name":"url","type":"string","internalType":"string"},{"name":"subRoutes","type":"string[]","internalType":"string[]"},{"name":"isValue","type":"bool","internalType":"bool"}]}],"stateMutability":"view"},{"type":"function","name":"getRoutes","inputs":[{"name":"cursor","type":"uint256","internalType":"uint256"},{"name":"n","type":"uint256","internalType":"uint256"}],"outputs":[{"name":"","type":"tuple[]","internalType":"struct RouteResult[]","components":[{"name":"id","type":"uint256","internalType":"uint256"},{"name":"route","type":"tuple","internalType":"struct Route","components":[{"name":"command","type":"string","internalType":"string"},{"name":"name","type":"string","internalType":"string"},{"name":"url","type":"string","internalType":"string"},{"name":"subRoutes","type":"string[]","internalType":"string[]"},{"name":"isValue","type":"bool","internalType":"bool"}]}]},{"name":"","type":"uint256","internalType":"uint256"},{"name":"","type":"uint256","internalType":"uint256"}],"stateMutability":"view"},{"type":"function","name":"updateRoute","inputs":[{"name":"id","type":"uint256","internalType":"uint256"},{"name":"route","type":"tuple","internalType":"struct Route","components":[{"name":"command","type":"string","internalType":"string"},{"name":"name","type":"string","internalType":"string"},{"name":"url","type":"string","internalType":"string"},{"name":"subRoutes","type":"string[]","internalType":"string[]"},{"name":"isValue","type":"bool","internalType":"bool"}]}],"outputs":[],"stateMutability":"nonpayable"}],"bytecode":{"object":"0x608060405234801561001057600080fd5b50600080546001600160a01b0319163317815560018190557f79c06e8c99a667adda63c5fa6f05695d29630fc62ad2dd069fa929d5714de89d8190558080527fac33ff75c19e70fe83507db0d683fd3465c996598dc972688b7ace676c89077b6020527f6ee3efecae883df2d7ccda22610b4ca771a299e707cb0d65c4ec97dc4e6668ad556112e0806100a46000396000f3fe608060405234801561001057600080fd5b50600436106100575760003560e01c8063694227e01461005c5780639693c4a4146100875780639de8db3e1461009c578063d53afddd146100bd578063fa66358a146100d0575b600080fd5b61006f61006a366004610c0d565b6100f0565b60405161007e93929190610d38565b60405180910390f35b61009a610095366004610dbc565b6104fc565b005b6100af6100aa366004611022565b6105d4565b60405190815260200161007e565b61009a6100cb36600461105f565b610702565b6100e36100de366004610dbc565b6107cf565b60405161007e91906110a6565b6060600080841580610113575060008581526003602052604090206004015460ff165b61011c57600080fd5b60008467ffffffffffffffff81111561013757610137610dd5565b60405190808252806020026020018201604052801561017057816020015b61015d610adf565b8152602001906001900390816101555790505b50905060005b858110156104eb5760008781526003602052604090819020815160a081019092528054829082906101a6906110c0565b80601f01602080910402602001604051908101604052809291908181526020018280546101d2906110c0565b801561021f5780601f106101f45761010080835404028352916020019161021f565b820191906000526020600020905b81548152906001019060200180831161020257829003601f168201915b50505050508152602001600182018054610238906110c0565b80601f0160208091040260200160405190810160405280929190818152602001828054610264906110c0565b80156102b15780601f10610286576101008083540402835291602001916102b1565b820191906000526020600020905b81548152906001019060200180831161029457829003601f168201915b505050505081526020016002820180546102ca906110c0565b80601f01602080910402602001604051908101604052809291908181526020018280546102f6906110c0565b80156103435780601f1061031857610100808354040283529160200191610343565b820191906000526020600020905b81548152906001019060200180831161032657829003601f168201915b5050505050815260200160038201805480602002602001604051908101604052809291908181526020016000905b8282101561041d578382906000526020600020018054610390906110c0565b80601f01602080910402602001604051908101604052809291908181526020018280546103bc906110c0565b80156104095780601f106103de57610100808354040283529160200191610409565b820191906000526020600020905b8154815290600101906020018083116103ec57829003601f168201915b505050505081526020019060010190610371565b505050908252506004919091015460ff161515602090910152825183908390811061044a5761044a6110fa565b6020026020010151602001819052508682828151811061046c5761046c6110fa565b60209081029190910181015191909152600097885260028152604080892060018a5290915290962054958615806104c457508181815181106104b0576104b06110fa565b602090810291909101810151015160800151155b156104e357816104d5826001611126565b8894509450945050506104f5565b600101610176565b5092508391508490505b9250925092565b6000546001600160a01b0316331461052f5760405162461bcd60e51b81526004016105269061113f565b60405180910390fd5b600081815260026020818152604080842060018086529083528185208054868052838720805488528686528488209388529285528387208190558254908752948452828620868052845282862094909455849055918390558383526003905281209061059b8282610b2a565b6105a9600183016000610b2a565b6105b7600283016000610b2a565b6105c5600383016000610b67565b50600401805460ff1916905550565b600080546001600160a01b031633146105ff5760405162461bcd60e51b81526004016105269061113f565b600180547f6ee3efecae883df2d7ccda22610b4ca771a299e707cb0d65c4ec97dc4e6668ad80546000838152600260208181526040808420848052808352818520869055948452918152818320968352958652808220859055918552818120819055918390558282526003909352919091208351849190819061068290826111d1565b506020820151600182019061069790826111d1565b50604082015160028201906106ac90826111d1565b50606082015180516106c8916003840191602090910190610b85565b50608091909101516004909101805460ff1916911515919091179055600180549060006106f483611291565b90915550909150505b919050565b6000546001600160a01b0316331461072c5760405162461bcd60e51b81526004016105269061113f565b60008281526003602052604090206004015460ff1661074a57600080fd5b60008281526003602052604090208151829190819061076990826111d1565b506020820151600182019061077e90826111d1565b506040820151600282019061079390826111d1565b50606082015180516107af916003840191602090910190610b85565b50608091909101516004909101805460ff19169115159190911790555050565b6108036040518060a00160405280606081526020016060815260200160608152602001606081526020016000151581525090565b60008281526003602052604090206004015460ff1661082157600080fd5b60008281526003602052604090819020815160a08101909252805482908290610849906110c0565b80601f0160208091040260200160405190810160405280929190818152602001828054610875906110c0565b80156108c25780601f10610897576101008083540402835291602001916108c2565b820191906000526020600020905b8154815290600101906020018083116108a557829003601f168201915b505050505081526020016001820180546108db906110c0565b80601f0160208091040260200160405190810160405280929190818152602001828054610907906110c0565b80156109545780601f1061092957610100808354040283529160200191610954565b820191906000526020600020905b81548152906001019060200180831161093757829003601f168201915b5050505050815260200160028201805461096d906110c0565b80601f0160208091040260200160405190810160405280929190818152602001828054610999906110c0565b80156109e65780601f106109bb576101008083540402835291602001916109e6565b820191906000526020600020905b8154815290600101906020018083116109c957829003601f168201915b5050505050815260200160038201805480602002602001604051908101604052809291908181526020016000905b82821015610ac0578382906000526020600020018054610a33906110c0565b80601f0160208091040260200160405190810160405280929190818152602001828054610a5f906110c0565b8015610aac5780601f10610a8157610100808354040283529160200191610aac565b820191906000526020600020905b815481529060010190602001808311610a8f57829003601f168201915b505050505081526020019060010190610a14565b505050908252506004919091015460ff16151560209091015292915050565b604051806040016040528060008152602001610b256040518060a00160405280606081526020016060815260200160608152602001606081526020016000151581525090565b905290565b508054610b36906110c0565b6000825580601f10610b46575050565b601f016020900490600052602060002090810190610b649190610bdb565b50565b5080546000825590600052602060002090810190610b649190610bf0565b828054828255906000526020600020908101928215610bcb579160200282015b82811115610bcb5782518290610bbb90826111d1565b5091602001919060010190610ba5565b50610bd7929150610bf0565b5090565b5b80821115610bd75760008155600101610bdc565b80821115610bd7576000610c048282610b2a565b50600101610bf0565b60008060408385031215610c2057600080fd5b50508035926020909101359150565b6000815180845260005b81811015610c5557602081850181015186830182015201610c39565b506000602082860101526020601f19601f83011685010191505092915050565b6000815160a08452610c8a60a0850182610c2f565b905060208084015185830382870152610ca38382610c2f565b92505060408401518583036040870152610cbd8382610c2f565b925050606084015185830360608701528281518085528385019150838160051b860101848401935060005b82811015610d1657601f19878303018452610d04828651610c2f565b94860194938601939150600101610ce8565b5060808801519550610d2c60808a018715159052565b98975050505050505050565b6000606082016060835280865180835260808501915060808160051b8601019250602080890160005b83811015610da357878603607f190185528151805187528301516040848801819052610d8f81890183610c75565b975050509382019390820190600101610d61565b5050850196909652506040909201929092529392505050565b600060208284031215610dce57600080fd5b5035919050565b634e487b7160e01b600052604160045260246000fd5b60405160a0810167ffffffffffffffff81118282101715610e0e57610e0e610dd5565b60405290565b604051601f8201601f1916810167ffffffffffffffff81118282101715610e3d57610e3d610dd5565b604052919050565b600082601f830112610e5657600080fd5b813567ffffffffffffffff811115610e7057610e70610dd5565b610e83601f8201601f1916602001610e14565b818152846020838601011115610e9857600080fd5b816020850160208301376000918101602001919091529392505050565b600082601f830112610ec657600080fd5b8135602067ffffffffffffffff80831115610ee357610ee3610dd5565b8260051b610ef2838201610e14565b9384528581018301938381019088861115610f0c57600080fd5b84880192505b85831015610d2c57823584811115610f2a5760008081fd5b610f388a87838c0101610e45565b8352509184019190840190610f12565b803580151581146106fd57600080fd5b600060a08284031215610f6a57600080fd5b610f72610deb565b9050813567ffffffffffffffff80821115610f8c57600080fd5b610f9885838601610e45565b83526020840135915080821115610fae57600080fd5b610fba85838601610e45565b60208401526040840135915080821115610fd357600080fd5b610fdf85838601610e45565b60408401526060840135915080821115610ff857600080fd5b5061100584828501610eb5565b60608301525061101760808301610f48565b608082015292915050565b60006020828403121561103457600080fd5b813567ffffffffffffffff81111561104b57600080fd5b61105784828501610f58565b949350505050565b6000806040838503121561107257600080fd5b82359150602083013567ffffffffffffffff81111561109057600080fd5b61109c85828601610f58565b9150509250929050565b6020815260006110b96020830184610c75565b9392505050565b600181811c908216806110d457607f821691505b6020821081036110f457634e487b7160e01b600052602260045260246000fd5b50919050565b634e487b7160e01b600052603260045260246000fd5b634e487b7160e01b600052601160045260246000fd5b8082018082111561113957611139611110565b92915050565b60208082526021908201527f4f6e6c79206f776e65722063616e2063616c6c20746869732066756e6374696f6040820152603760f91b606082015260800190565b601f8211156111cc576000816000526020600020601f850160051c810160208610156111a95750805b601f850160051c820191505b818110156111c8578281556001016111b5565b5050505b505050565b815167ffffffffffffffff8111156111eb576111eb610dd5565b6111ff816111f984546110c0565b84611180565b602080601f831160018114611234576000841561121c5750858301515b600019600386901b1c1916600185901b1785556111c8565b600085815260208120601f198616915b8281101561126357888601518255948401946001909101908401611244565b50858210156112815787850151600019600388901b60f8161c191681555b5050505050600190811b01905550565b6000600182016112a3576112a3611110565b506001019056fea2646970667358221220630b9f9bfa8f63240bbb12344c0929485883d920346d5a8e93ea0ab7a59b8d2164736f6c63430008180033","linkReferences":{}},"methodIdentifiers":{"addRoute((string,string,string,string[],bool))":"9de8db3e","deleteRoute(uint256)":"9693c4a4","getRoute(uint256)":"fa66358a","getRoutes(uint256,uint256)":"694227e0","updateRoute(uint256,(string,string,string,string[],bool))":"d53afddd"},"id":23}