{
  "abi": [
    {
      "type": "constructor",
      "inputs": [],
      "stateMutability": "nonpayable"
    },
    {
      "type": "function",
      "name": "addRoute",
      "inputs": [
        {
          "name": "route",
          "type": "tuple",
          "internalType": "struct RouteAddData",
          "components": [
            {
              "name": "command",
              "type": "string",
              "internalType": "string"
            },
            {
              "name": "name",
              "type": "string",
              "internalType": "string"
            },
            {
              "name": "url",
              "type": "string",
              "internalType": "string"
            },
            {
              "name": "description",
              "type": "string",
              "internalType": "string"
            },
            {
              "name": "subRoutes",
              "type": "string[]",
              "internalType": "string[]"
            }
          ]
        }
      ],
      "outputs": [
        {
          "name": "",
          "type": "tuple",
          "internalType": "struct Route",
          "components": [
            {
              "name": "command",
              "type": "string",
              "internalType": "string"
            },
            {
              "name": "name",
              "type": "string",
              "internalType": "string"
            },
            {
              "name": "url",
              "type": "string",
              "internalType": "string"
            },
            {
              "name": "description",
              "type": "string",
              "internalType": "string"
            },
            {
              "name": "subRoutes",
              "type": "string[]",
              "internalType": "string[]"
            },
            {
              "name": "isValue",
              "type": "bool",
              "internalType": "bool"
            },
            {
              "name": "routeType",
              "type": "uint8",
              "internalType": "enum RouteType"
            }
          ]
        }
      ],
      "stateMutability": "nonpayable"
    },
    {
      "type": "function",
      "name": "deleteRoute",
      "inputs": [
        {
          "name": "command",
          "type": "string",
          "internalType": "string"
        }
      ],
      "outputs": [],
      "stateMutability": "nonpayable"
    },
    {
      "type": "function",
      "name": "getRoute",
      "inputs": [
        {
          "name": "command",
          "type": "string",
          "internalType": "string"
        }
      ],
      "outputs": [
        {
          "name": "",
          "type": "tuple",
          "internalType": "struct Route",
          "components": [
            {
              "name": "command",
              "type": "string",
              "internalType": "string"
            },
            {
              "name": "name",
              "type": "string",
              "internalType": "string"
            },
            {
              "name": "url",
              "type": "string",
              "internalType": "string"
            },
            {
              "name": "description",
              "type": "string",
              "internalType": "string"
            },
            {
              "name": "subRoutes",
              "type": "string[]",
              "internalType": "string[]"
            },
            {
              "name": "isValue",
              "type": "bool",
              "internalType": "bool"
            },
            {
              "name": "routeType",
              "type": "uint8",
              "internalType": "enum RouteType"
            }
          ]
        }
      ],
      "stateMutability": "view"
    },
    {
      "type": "function",
      "name": "getRoutes",
      "inputs": [
        {
          "name": "cursor",
          "type": "string",
          "internalType": "string"
        },
        {
          "name": "n",
          "type": "uint256",
          "internalType": "uint256"
        }
      ],
      "outputs": [
        {
          "name": "",
          "type": "tuple[]",
          "internalType": "struct Route[]",
          "components": [
            {
              "name": "command",
              "type": "string",
              "internalType": "string"
            },
            {
              "name": "name",
              "type": "string",
              "internalType": "string"
            },
            {
              "name": "url",
              "type": "string",
              "internalType": "string"
            },
            {
              "name": "description",
              "type": "string",
              "internalType": "string"
            },
            {
              "name": "subRoutes",
              "type": "string[]",
              "internalType": "string[]"
            },
            {
              "name": "isValue",
              "type": "bool",
              "internalType": "bool"
            },
            {
              "name": "routeType",
              "type": "uint8",
              "internalType": "enum RouteType"
            }
          ]
        },
        {
          "name": "",
          "type": "uint256",
          "internalType": "uint256"
        },
        {
          "name": "",
          "type": "string",
          "internalType": "string"
        }
      ],
      "stateMutability": "view"
    },
    {
      "type": "function",
      "name": "updateRoute",
      "inputs": [
        {
          "name": "command",
          "type": "string",
          "internalType": "string"
        },
        {
          "name": "route",
          "type": "tuple",
          "internalType": "struct RouteUpdateData",
          "components": [
            {
              "name": "name",
              "type": "string",
              "internalType": "string"
            },
            {
              "name": "url",
              "type": "string",
              "internalType": "string"
            },
            {
              "name": "description",
              "type": "string",
              "internalType": "string"
            },
            {
              "name": "subRoutes",
              "type": "string[]",
              "internalType": "string[]"
            }
          ]
        }
      ],
      "outputs": [],
      "stateMutability": "nonpayable"
    }
  ],
  "bytecode": {
    "object": "0x60806040523480156200001157600080fd5b50600080546001600160a01b0319163317815560408051600480825260a0820190925290602082015b60608152602001906001900390816200003a5790505090506040518060400160405280601a81526020017f73657475703a3a25303030302f726f757433722f237365747570000000000000815250816000815181106200009e576200009e620004d0565b60200260200101819052506040518060400160405280601a81526020017f61626f75743a3a25303030302f726f757433722f2361626f757400000000000081525081600181518110620000f557620000f5620004d0565b60200260200101819052506040518060400160405280601d81526020017f6e65773a3a25303030302f726f757433722f23726f757465732f6e6577000000815250816002815181106200014c576200014c620004d0565b60200260200101819052506040518060400160405280602081526020017f7365617263683a3a25303030302f726f757433722f23726f7574652f2540404081525081600381518110620001a357620001a3620004d0565b6020908102919091018101919091526040805161012081018252600260e0820181815261723360f01b610100840181905290835283518085018552600b81526a726f75743372204d656e7560a81b818701528386015283518085018552600d81526c25303030302f726f757433722f60981b818701528385015283518085018552600f81526e54686520726f75743372206d656e7560881b81870152606084015260808301869052600160a0840181905260c0840181905284518086019095529184529383019390935291906200027b90826200058d565b50806003600160405162000290919062000659565b90815260405190819003602001902081518190620002af90826200058d565b5060208201516001820190620002c690826200058d565b5060408201516002820190620002dd90826200058d565b5060608201516003820190620002f490826200058d565b506080820151805162000312916004840191602090910190620003e3565b5060a082015160058201805491151560ff1983168117825560c08501519261ff001990911661ffff1990911617610100836001811115620003575762000357620004e6565b021790555090505060016002600160405162000374919062000659565b90815260408051602092819003830190206001600090815292529020906200039d9082620006d7565b50600160026001604051620003b3919062000659565b908152604080516020928190038301902060008080529252902090620003da9082620006d7565b505050620007c0565b8280548282559060005260206000209081019282156200042e579160200282015b828111156200042e57825182906200041d90826200058d565b509160200191906001019062000404565b506200043c92915062000440565b5090565b808211156200043c57600062000457828262000461565b5060010162000440565b5080546200046f90620004fc565b6000825580601f1062000480575050565b601f016020900490600052602060002090810190620004a09190620004a3565b50565b5b808211156200043c5760008155600101620004a4565b634e487b7160e01b600052604160045260246000fd5b634e487b7160e01b600052603260045260246000fd5b634e487b7160e01b600052602160045260246000fd5b600181811c908216806200051157607f821691505b6020821081036200053257634e487b7160e01b600052602260045260246000fd5b50919050565b601f82111562000588576000816000526020600020601f850160051c81016020861015620005635750805b601f850160051c820191505b8181101562000584578281556001016200056f565b5050505b505050565b81516001600160401b03811115620005a957620005a9620004ba565b620005c181620005ba8454620004fc565b8462000538565b602080601f831160018114620005f95760008415620005e05750858301515b600019600386901b1c1916600185901b17855562000584565b600085815260208120601f198616915b828110156200062a5788860151825594840194600190910190840162000609565b5085821015620006495787850151600019600388901b60f8161c191681555b5050505050600190811b01905550565b60008083546200066981620004fc565b600182811680156200068457600181146200069a57620006cb565b60ff1984168752821515830287019450620006cb565b8760005260208060002060005b85811015620006c25781548a820152908401908201620006a7565b50505082870194505b50929695505050505050565b818103620006e3575050565b620006ef8254620004fc565b6001600160401b03811115620007095762000709620004ba565b6200071a81620005ba8454620004fc565b6000601f821160018114620007515760008315620007385750848201545b600019600385901b1c1916600184901b178455620007b9565b600085815260209020601f19841690600086815260209020845b838110156200078d57828601548255600195860195909101906020016200076b565b5085831015620007ac5781850154600019600388901b60f8161c191681555b50505060018360011b0184555b5050505050565b61211480620007d06000396000f3fe608060405234801561001057600080fd5b50600436106100575760003560e01c80631b5f03a61461005c5780638721189c146100855780638b167096146100985780639255818d146100ba578063a458c129146100cf575b600080fd5b61006f61006a366004611845565b6100e2565b60405161007c91906119fb565b60405180910390f35b61006f610093366004611aa8565b61048e565b6100ab6100a6366004611ba5565b6109c6565b60405161007c93929190611bea565b6100cd6100c8366004611845565b611060565b005b6100cd6100dd366004611c68565b61147a565b6100ea611614565b6100f38261159e565b6100fc57600080fd5b60038260405161010c9190611d68565b90815260200160405180910390206040518060e001604052908160008201805461013590611d84565b80601f016020809104026020016040519081016040528092919081815260200182805461016190611d84565b80156101ae5780601f10610183576101008083540402835291602001916101ae565b820191906000526020600020905b81548152906001019060200180831161019157829003601f168201915b505050505081526020016001820180546101c790611d84565b80601f01602080910402602001604051908101604052809291908181526020018280546101f390611d84565b80156102405780601f1061021557610100808354040283529160200191610240565b820191906000526020600020905b81548152906001019060200180831161022357829003601f168201915b5050505050815260200160028201805461025990611d84565b80601f016020809104026020016040519081016040528092919081815260200182805461028590611d84565b80156102d25780601f106102a7576101008083540402835291602001916102d2565b820191906000526020600020905b8154815290600101906020018083116102b557829003601f168201915b505050505081526020016003820180546102eb90611d84565b80601f016020809104026020016040519081016040528092919081815260200182805461031790611d84565b80156103645780601f1061033957610100808354040283529160200191610364565b820191906000526020600020905b81548152906001019060200180831161034757829003601f168201915b5050505050815260200160048201805480602002602001604051908101604052809291908181526020016000905b8282101561043e5783829060005260206000200180546103b190611d84565b80601f01602080910402602001604051908101604052809291908181526020018280546103dd90611d84565b801561042a5780601f106103ff5761010080835404028352916020019161042a565b820191906000526020600020905b81548152906001019060200180831161040d57829003601f168201915b505050505081526020019060010190610392565b50505090825250600582015460ff80821615156020840152604090920191610100909104166001811115610474576104746118d2565b6001811115610485576104856118d2565b90525092915050565b610496611614565b6000546001600160a01b031633146104c95760405162461bcd60e51b81526004016104c090611dbe565b60405180910390fd5b81516104d49061159e565b1561052b5760405162461bcd60e51b815260206004820152602160248201527f526f757465207769746820636f6d6d616e6420616c72656164792065786973746044820152607360f81b60648201526084016104c0565b60006040518060e00160405280846000015181526020018460200151815260200184604001518152602001846060015181526020018460800151815260200160011515815260200160006001811115610586576105866118d2565b81525090506106576001805461059b90611d84565b80601f01602080910402602001604051908101604052809291908181526020018280546105c790611d84565b80156106145780601f106105e957610100808354040283529160200191610614565b820191906000526020600020905b8154815290600101906020018083116105f757829003601f168201915b50506040805160208082019092526000905284519401939093207fc5d2460186f7233c927e7db2dcc703c0e500b653ca82273b7bfad8045d85a470149392505050565b156107b957825160019061066b9082611e4f565b5060016002600160405161067f9190611f0f565b90815260408051602092819003830190206001600090815292529020906106a69082611f85565b506001600260016040516106ba9190611f0f565b9081526040805160209281900383019020600080805292529020906106df9082611f85565b5080600360016040516106f29190611f0f565b9081526040519081900360200190208151819061070f9082611e4f565b50602082015160018201906107249082611e4f565b50604082015160028201906107399082611e4f565b506060820151600382019061074e9082611e4f565b506080820151805161076a916004840191602090910190611663565b5060a082015160058201805491151560ff1983168117825560c08501519261ff001990911661ffff19909116176101008360018111156107ac576107ac6118d2565b02179055509050506109c0565b82516040516002906107cd90600190611f0f565b9081526040805191829003602090810183206000808052915220906002906107f6908490611d68565b90815260408051602092819003830190206000808052925290209061081b9082611f85565b5080600280600160405161082f9190611f0f565b908152604080519182900360209081018320600080805291522061085291611f0f565b90815260408051602092819003830190206001600090815292529020906108799082611e4f565b50600160028260405161088c9190611d68565b90815260408051602092819003830190206001600090815292529020906108b39082611f85565b5080600260016040516108c69190611f0f565b9081526040805160209281900383019020600080805292529020906108eb9082611e4f565b50816003826040516108fd9190611d68565b9081526040519081900360200190208151819061091a9082611e4f565b506020820151600182019061092f9082611e4f565b50604082015160028201906109449082611e4f565b50606082015160038201906109599082611e4f565b5060808201518051610975916004840191602090910190611663565b5060a082015160058201805491151560ff1983168117825560c08501519261ff001990911661ffff19909116176101008360018111156109b7576109b76118d2565b02179055505050505b92915050565b60606000606060008467ffffffffffffffff8111156109e7576109e7611742565b604051908082528060200260200182016040528015610a2057816020015b610a0d611614565b815260200190600190039081610a055790505b506040805160208082019092526000908190528851918901919091209192509081907fc5d2460186f7233c927e7db2dcc703c0e500b653ca82273b7bfad8045d85a47014610a6e5787610afa565b60018054610a7b90611d84565b80601f0160208091040260200160405190810160405280929190818152602001828054610aa790611d84565b8015610af45780601f10610ac957610100808354040283529160200191610af4565b820191906000526020600020905b815481529060010190602001808311610ad757829003601f168201915b50505050505b90505b600381604051610b0d9190611d68565b90815260200160405180910390206040518060e0016040529081600082018054610b3690611d84565b80601f0160208091040260200160405190810160405280929190818152602001828054610b6290611d84565b8015610baf5780601f10610b8457610100808354040283529160200191610baf565b820191906000526020600020905b815481529060010190602001808311610b9257829003601f168201915b50505050508152602001600182018054610bc890611d84565b80601f0160208091040260200160405190810160405280929190818152602001828054610bf490611d84565b8015610c415780601f10610c1657610100808354040283529160200191610c41565b820191906000526020600020905b815481529060010190602001808311610c2457829003601f168201915b50505050508152602001600282018054610c5a90611d84565b80601f0160208091040260200160405190810160405280929190818152602001828054610c8690611d84565b8015610cd35780601f10610ca857610100808354040283529160200191610cd3565b820191906000526020600020905b815481529060010190602001808311610cb657829003601f168201915b50505050508152602001600382018054610cec90611d84565b80601f0160208091040260200160405190810160405280929190818152602001828054610d1890611d84565b8015610d655780601f10610d3a57610100808354040283529160200191610d65565b820191906000526020600020905b815481529060010190602001808311610d4857829003601f168201915b5050505050815260200160048201805480602002602001604051908101604052809291908181526020016000905b82821015610e3f578382906000526020600020018054610db290611d84565b80601f0160208091040260200160405190810160405280929190818152602001828054610dde90611d84565b8015610e2b5780601f10610e0057610100808354040283529160200191610e2b565b820191906000526020600020905b815481529060010190602001808311610e0e57829003601f168201915b505050505081526020019060010190610d93565b50505090825250600582015460ff80821615156020840152604090920191610100909104166001811115610e7557610e756118d2565b6001811115610e8657610e866118d2565b81525050838381518110610e9c57610e9c612060565b6020026020010181905250600281604051610eb79190611d68565b908152604080516020928190038301902060016000908152925290208054610ede90611d84565b80601f0160208091040260200160405190810160405280929190818152602001828054610f0a90611d84565b8015610f575780601f10610f2c57610100808354040283529160200191610f57565b820191906000526020600020905b815481529060010190602001808311610f3a57829003601f168201915b505050505090508180610f6990612076565b9250506110118160018054610f7d90611d84565b80601f0160208091040260200160405190810160405280929190818152602001828054610fa990611d84565b8015610ff65780601f10610fcb57610100808354040283529160200191610ff6565b820191906000526020600020905b815481529060010190602001808311610fd957829003601f168201915b50505050508051602091820120825192909101919091201490565b15801561101d57508682105b610afd5760006110348260018054610f7d90611d84565b61103e578161104f565b604051806020016040528060008152505b939992985092965090945050505050565b6000546001600160a01b0316331461108a5760405162461bcd60e51b81526004016104c090611dbe565b6110938161159e565b6110af5760405162461bcd60e51b81526004016104c09061209d565b6110b8816115cc565b156111055760405162461bcd60e51b815260206004820152601e60248201527f43616e6e6f742064656c657465206120726573657276656420726f757465000060448201526064016104c0565b60006002826040516111179190611d68565b9081526040805160209281900383019020600080805292529020805461113c90611d84565b80601f016020809104026020016040519081016040528092919081815260200182805461116890611d84565b80156111b55780601f1061118a576101008083540402835291602001916111b5565b820191906000526020600020905b81548152906001019060200180831161119857829003601f168201915b5050505050905060006002836040516111ce9190611d68565b9081526040805160209281900383019020600160009081529252902080546111f590611d84565b80601f016020809104026020016040519081016040528092919081815260200182805461122190611d84565b801561126e5780601f106112435761010080835404028352916020019161126e565b820191906000526020600020905b81548152906001019060200180831161125157829003601f168201915b50505050509050806002836040516112869190611d68565b90815260408051602092819003830190206001600090815292529020906112ad9082611e4f565b50816002826040516112bf9190611d68565b9081526040805160209281900383019020600080805292529020906112e49082611e4f565b5061138a600180546112f590611d84565b80601f016020809104026020016040519081016040528092919081815260200182805461132190611d84565b801561136e5780601f106113435761010080835404028352916020019161136e565b820191906000526020600020905b81548152906001019060200180831161135157829003601f168201915b5050505050848051602091820120825192909101919091201490565b1561139d57600161139b8282611e4f565b505b6002836040516113ad9190611d68565b90815260408051602092819003830190206000808052925281206113d0916116b9565b6002836040516113e09190611d68565b90815260408051602092819003830190206001600090815292528120611405916116b9565b6003836040516114159190611d68565b908152604051908190036020019020600061143082826116b9565b61143e6001830160006116b9565b61144c6002830160006116b9565b61145a6003830160006116b9565b6114686004830160006116f6565b50600501805461ffff19169055505050565b6000546001600160a01b031633146114a45760405162461bcd60e51b81526004016104c090611dbe565b6114ad8261159e565b6114c95760405162461bcd60e51b81526004016104c09061209d565b80516040516003906114dc908590611d68565b908152602001604051809103902060010190816114f99190611e4f565b50806020015160038360405161150f9190611d68565b9081526020016040518091039020600201908161152c9190611e4f565b5080604001516003836040516115429190611d68565b9081526020016040518091039020600301908161155f9190611e4f565b5080606001516003836040516115759190611d68565b90815260200160405180910390206004019080519060200190611599929190611663565b505050565b60006003826040516115b09190611d68565b9081526040519081900360200190206005015460ff1692915050565b600060016003836040516115e09190611d68565b9081526040519081900360200190206005015460ff61010090910416600181111561160d5761160d6118d2565b1492915050565b6040518060e0016040528060608152602001606081526020016060815260200160608152602001606081526020016000151581526020016000600181111561165e5761165e6118d2565b905290565b8280548282559060005260206000209081019282156116a9579160200282015b828111156116a957825182906116999082611e4f565b5091602001919060010190611683565b506116b5929150611710565b5090565b5080546116c590611d84565b6000825580601f106116d5575050565b601f0160209004906000526020600020908101906116f3919061172d565b50565b50805460008255906000526020600020908101906116f391905b808211156116b557600061172482826116b9565b50600101611710565b5b808211156116b5576000815560010161172e565b634e487b7160e01b600052604160045260246000fd5b60405160a0810167ffffffffffffffff8111828210171561177b5761177b611742565b60405290565b6040516080810167ffffffffffffffff8111828210171561177b5761177b611742565b604051601f8201601f1916810167ffffffffffffffff811182821017156117cd576117cd611742565b604052919050565b600082601f8301126117e657600080fd5b813567ffffffffffffffff81111561180057611800611742565b611813601f8201601f19166020016117a4565b81815284602083860101111561182857600080fd5b816020850160208301376000918101602001919091529392505050565b60006020828403121561185757600080fd5b813567ffffffffffffffff81111561186e57600080fd5b61187a848285016117d5565b949350505050565b60005b8381101561189d578181015183820152602001611885565b50506000910152565b600081518084526118be816020860160208601611882565b601f01601f19169290920160200192915050565b634e487b7160e01b600052602160045260246000fd5b6002811061190657634e487b7160e01b600052602160045260246000fd5b9052565b6000815160e0845261191f60e08501826118a6565b90506020808401518583038287015261193883826118a6565b9250506040840151858303604087015261195283826118a6565b9250506060840151858303606087015261196c83826118a6565b925050608084015185830360808701528281518085528385019150838160051b860101848401935060005b828110156119c557601f198783030184526119b38286516118a6565b94860194938601939150600101611997565b5060a088015195506119db60a08a018715159052565b60c088015195506119ef60c08a01876118e8565b98975050505050505050565b602081526000611a0e602083018461190a565b9392505050565b600082601f830112611a2657600080fd5b8135602067ffffffffffffffff80831115611a4357611a43611742565b8260051b611a528382016117a4565b9384528581018301938381019088861115611a6c57600080fd5b84880192505b858310156119ef57823584811115611a8a5760008081fd5b611a988a87838c01016117d5565b8352509184019190840190611a72565b600060208284031215611aba57600080fd5b813567ffffffffffffffff80821115611ad257600080fd5b9083019060a08286031215611ae657600080fd5b611aee611758565b823582811115611afd57600080fd5b611b09878286016117d5565b825250602083013582811115611b1e57600080fd5b611b2a878286016117d5565b602083015250604083013582811115611b4257600080fd5b611b4e878286016117d5565b604083015250606083013582811115611b6657600080fd5b611b72878286016117d5565b606083015250608083013582811115611b8a57600080fd5b611b9687828601611a15565b60808301525095945050505050565b60008060408385031215611bb857600080fd5b823567ffffffffffffffff811115611bcf57600080fd5b611bdb858286016117d5565b95602094909401359450505050565b6000606082016060835280865180835260808501915060808160051b8601019250602080890160005b83811015611c4157607f19888703018552611c2f86835161190a565b95509382019390820190600101611c13565b50505050508460208401528281036040840152611c5e81856118a6565b9695505050505050565b60008060408385031215611c7b57600080fd5b823567ffffffffffffffff80821115611c9357600080fd5b611c9f868387016117d5565b93506020850135915080821115611cb557600080fd5b9084019060808287031215611cc957600080fd5b611cd1611781565b823582811115611ce057600080fd5b611cec888286016117d5565b825250602083013582811115611d0157600080fd5b611d0d888286016117d5565b602083015250604083013582811115611d2557600080fd5b611d31888286016117d5565b604083015250606083013582811115611d4957600080fd5b611d5588828601611a15565b6060830152508093505050509250929050565b60008251611d7a818460208701611882565b9190910192915050565b600181811c90821680611d9857607f821691505b602082108103611db857634e487b7160e01b600052602260045260246000fd5b50919050565b60208082526021908201527f4f6e6c79206f776e65722063616e2063616c6c20746869732066756e6374696f6040820152603760f91b606082015260800190565b601f821115611599576000816000526020600020601f850160051c81016020861015611e285750805b601f850160051c820191505b81811015611e4757828155600101611e34565b505050505050565b815167ffffffffffffffff811115611e6957611e69611742565b611e7d81611e778454611d84565b84611dff565b602080601f831160018114611eb25760008415611e9a5750858301515b600019600386901b1c1916600185901b178555611e47565b600085815260208120601f198616915b82811015611ee157888601518255948401946001909101908401611ec2565b5085821015611eff5787850151600019600388901b60f8161c191681555b5050505050600190811b01905550565b6000808354611f1d81611d84565b60018281168015611f355760018114611f4a57611f79565b60ff1984168752821515830287019450611f79565b8760005260208060002060005b85811015611f705781548a820152908401908201611f57565b50505082870194505b50929695505050505050565b818103611f90575050565b611f9a8254611d84565b67ffffffffffffffff811115611fb257611fb2611742565b611fc081611e778454611d84565b6000601f821160018114611ff45760008315611fdc5750848201545b600019600385901b1c1916600184901b178455612059565b600085815260209020601f19841690600086815260209020845b8381101561202e578286015482556001958601959091019060200161200e565b508583101561204c5781850154600019600388901b60f8161c191681555b50505060018360011b0184555b5050505050565b634e487b7160e01b600052603260045260246000fd5b60006001820161209657634e487b7160e01b600052601160045260246000fd5b5060010190565b60208082526021908201527f526f757465207769746820636f6d6d616e6420646f6573206e6f7420657869736040820152601d60fa1b60608201526080019056fea26469706673582212201c0e5bd511541542520bb7247a02427b6a95313aefd713d27c95fb6ec1bdd51864736f6c63430008180033",
    "linkReferences": {}
  },
  "methodIdentifiers": {
    "addRoute((string,string,string,string,string[]))": "8721189c",
    "deleteRoute(string)": "9255818d",
    "getRoute(string)": "1b5f03a6",
    "getRoutes(string,uint256)": "8b167096",
    "updateRoute(string,(string,string,string,string[]))": "a458c129"
  },
  "id": 23
}