{
  "abi": [
    {
      "type": "constructor",
      "inputs": [],
      "stateMutability": "nonpayable"
    },
    {
      "type": "function",
      "name": "addRoute",
      "inputs": [
        {
          "name": "route",
          "type": "tuple",
          "internalType": "struct Route",
          "components": [
            {
              "name": "command",
              "type": "string",
              "internalType": "string"
            },
            {
              "name": "name",
              "type": "string",
              "internalType": "string"
            },
            {
              "name": "url",
              "type": "string",
              "internalType": "string"
            },
            {
              "name": "subRoutes",
              "type": "string[]",
              "internalType": "string[]"
            },
            {
              "name": "isValue",
              "type": "bool",
              "internalType": "bool"
            }
          ]
        }
      ],
      "outputs": [
        {
          "name": "",
          "type": "uint256",
          "internalType": "uint256"
        }
      ],
      "stateMutability": "nonpayable"
    },
    {
      "type": "function",
      "name": "deleteRoute",
      "inputs": [
        {
          "name": "id",
          "type": "uint256",
          "internalType": "uint256"
        }
      ],
      "outputs": [],
      "stateMutability": "nonpayable"
    },
    {
      "type": "function",
      "name": "getRoute",
      "inputs": [
        {
          "name": "id",
          "type": "uint256",
          "internalType": "uint256"
        }
      ],
      "outputs": [
        {
          "name": "",
          "type": "tuple",
          "internalType": "struct Route",
          "components": [
            {
              "name": "command",
              "type": "string",
              "internalType": "string"
            },
            {
              "name": "name",
              "type": "string",
              "internalType": "string"
            },
            {
              "name": "url",
              "type": "string",
              "internalType": "string"
            },
            {
              "name": "subRoutes",
              "type": "string[]",
              "internalType": "string[]"
            },
            {
              "name": "isValue",
              "type": "bool",
              "internalType": "bool"
            }
          ]
        }
      ],
      "stateMutability": "view"
    },
    {
      "type": "function",
      "name": "getRoutes",
      "inputs": [
        {
          "name": "cursor",
          "type": "uint256",
          "internalType": "uint256"
        },
        {
          "name": "n",
          "type": "uint256",
          "internalType": "uint256"
        }
      ],
      "outputs": [
        {
          "name": "",
          "type": "tuple[]",
          "internalType": "struct RouteResult[]",
          "components": [
            {
              "name": "id",
              "type": "uint256",
              "internalType": "uint256"
            },
            {
              "name": "route",
              "type": "tuple",
              "internalType": "struct Route",
              "components": [
                {
                  "name": "command",
                  "type": "string",
                  "internalType": "string"
                },
                {
                  "name": "name",
                  "type": "string",
                  "internalType": "string"
                },
                {
                  "name": "url",
                  "type": "string",
                  "internalType": "string"
                },
                {
                  "name": "subRoutes",
                  "type": "string[]",
                  "internalType": "string[]"
                },
                {
                  "name": "isValue",
                  "type": "bool",
                  "internalType": "bool"
                }
              ]
            }
          ]
        },
        {
          "name": "",
          "type": "uint256",
          "internalType": "uint256"
        },
        {
          "name": "",
          "type": "uint256",
          "internalType": "uint256"
        }
      ],
      "stateMutability": "view"
    },
    {
      "type": "function",
      "name": "head",
      "inputs": [],
      "outputs": [
        {
          "name": "",
          "type": "uint256",
          "internalType": "uint256"
        }
      ],
      "stateMutability": "view"
    },
    {
      "type": "function",
      "name": "updateRoute",
      "inputs": [
        {
          "name": "id",
          "type": "uint256",
          "internalType": "uint256"
        },
        {
          "name": "route",
          "type": "tuple",
          "internalType": "struct Route",
          "components": [
            {
              "name": "command",
              "type": "string",
              "internalType": "string"
            },
            {
              "name": "name",
              "type": "string",
              "internalType": "string"
            },
            {
              "name": "url",
              "type": "string",
              "internalType": "string"
            },
            {
              "name": "subRoutes",
              "type": "string[]",
              "internalType": "string[]"
            },
            {
              "name": "isValue",
              "type": "bool",
              "internalType": "bool"
            }
          ]
        }
      ],
      "outputs": [],
      "stateMutability": "nonpayable"
    }
  ],
  "bytecode": {
    "object": "0x608060405234801561001057600080fd5b50600080546001600160a01b03191633178155600181905560028190557ff5d2b9d7b7dcf31fafb527f48cb641b3e286ba85117ea973378ae75f2b0f27c98190558080527f3617319a054d772f909f7c479a2cebe5066e836a939412e32403c99029b92eff6020527f84fa35e963a209ed7b6693816f0819bcb70c934337c6902235d48a9c59ebe6eb556112f0806100a96000396000f3fe608060405234801561001057600080fd5b50600436106100625760003560e01c8063694227e0146100675780638f7dcfa3146100925780639693c4a4146100a95780639de8db3e146100be578063d53afddd146100d1578063fa66358a146100e4575b600080fd5b61007a610075366004610c3e565b610104565b60405161008993929190610d69565b60405180910390f35b61009b60025481565b604051908152602001610089565b6100bc6100b7366004610ded565b6104c9565b005b61009b6100cc366004611053565b6105ed565b6100bc6100df366004611090565b610731565b6100f76100f2366004610ded565b6107ff565b60405161008991906110d7565b606060008060008467ffffffffffffffff81111561012457610124610e06565b60405190808252806020026020018201604052801561015d57816020015b61014a610b10565b8152602001906001900390816101425790505b509050600080871561016f5787610173565b6002545b90505b6040518060400160405280828152602001600460008481526020019081526020016000206040518060a00160405290816000820180546101b5906110f1565b80601f01602080910402602001604051908101604052809291908181526020018280546101e1906110f1565b801561022e5780601f106102035761010080835404028352916020019161022e565b820191906000526020600020905b81548152906001019060200180831161021157829003601f168201915b50505050508152602001600182018054610247906110f1565b80601f0160208091040260200160405190810160405280929190818152602001828054610273906110f1565b80156102c05780601f10610295576101008083540402835291602001916102c0565b820191906000526020600020905b8154815290600101906020018083116102a357829003601f168201915b505050505081526020016002820180546102d9906110f1565b80601f0160208091040260200160405190810160405280929190818152602001828054610305906110f1565b80156103525780601f1061032757610100808354040283529160200191610352565b820191906000526020600020905b81548152906001019060200180831161033557829003601f168201915b5050505050815260200160038201805480602002602001604051908101604052809291908181526020016000905b8282101561042c57838290600052602060002001805461039f906110f1565b80601f01602080910402602001604051908101604052809291908181526020018280546103cb906110f1565b80156104185780601f106103ed57610100808354040283529160200191610418565b820191906000526020600020905b8154815290600101906020018083116103fb57829003601f168201915b505050505081526020019060010190610380565b505050908252506004919091015460ff1615156020909101529052835184908490811061045b5761045b61112b565b6020908102919091018101919091526000918252600381526040808320600184529091529020548161048c81611141565b92505060025481141580156104a057508682105b61017657600060025482146104b557816104b8565b60005b939992985092965090945050505050565b6000546001600160a01b031633146104fc5760405162461bcd60e51b81526004016104f390611168565b60405180910390fd5b6000818152600460208190526040909120015460ff1661051b57600080fd5b600081815260036020818152604080842084805282528084205460018086528286205482875285855283872091875290845282862081905580865293835281852085805290925290922082905560025483036105775760028190555b600083815260036020908152604080832083805282528083208390556001835280832083905585835260049091528120906105b28282610b5b565b6105c0600183016000610b5b565b6105ce600283016000610b5b565b6105dc600383016000610b98565b50600401805460ff19169055505050565b600080546001600160a01b031633146106185760405162461bcd60e51b81526004016104f390611168565b60018054600280546000908152600360208181526040808420848052825280842054868552838352818520858052808452828620919091558554855283835281852085805283528185205485528383528185209785529682528084208690559354958152838320869055948252845281812081805284528181208390558281526004909352909120835184919081906106b190826111fa565b50602082015160018201906106c690826111fa565b50604082015160028201906106db90826111fa565b50606082015180516106f7916003840191602090910190610bb6565b50608091909101516004909101805460ff19169115159190911790556001805490600061072383611141565b90915550909150505b919050565b6000546001600160a01b0316331461075b5760405162461bcd60e51b81526004016104f390611168565b6000828152600460208190526040909120015460ff1661077a57600080fd5b60008281526004602052604090208151829190819061079990826111fa565b50602082015160018201906107ae90826111fa565b50604082015160028201906107c390826111fa565b50606082015180516107df916003840191602090910190610bb6565b50608091909101516004909101805460ff19169115159190911790555050565b6108336040518060a00160405280606081526020016060815260200160608152602001606081526020016000151581525090565b6000828152600460208190526040909120015460ff1661085257600080fd5b60008281526004602052604090819020815160a0810190925280548290829061087a906110f1565b80601f01602080910402602001604051908101604052809291908181526020018280546108a6906110f1565b80156108f35780601f106108c8576101008083540402835291602001916108f3565b820191906000526020600020905b8154815290600101906020018083116108d657829003601f168201915b5050505050815260200160018201805461090c906110f1565b80601f0160208091040260200160405190810160405280929190818152602001828054610938906110f1565b80156109855780601f1061095a57610100808354040283529160200191610985565b820191906000526020600020905b81548152906001019060200180831161096857829003601f168201915b5050505050815260200160028201805461099e906110f1565b80601f01602080910402602001604051908101604052809291908181526020018280546109ca906110f1565b8015610a175780601f106109ec57610100808354040283529160200191610a17565b820191906000526020600020905b8154815290600101906020018083116109fa57829003601f168201915b5050505050815260200160038201805480602002602001604051908101604052809291908181526020016000905b82821015610af1578382906000526020600020018054610a64906110f1565b80601f0160208091040260200160405190810160405280929190818152602001828054610a90906110f1565b8015610add5780601f10610ab257610100808354040283529160200191610add565b820191906000526020600020905b815481529060010190602001808311610ac057829003601f168201915b505050505081526020019060010190610a45565b505050908252506004919091015460ff16151560209091015292915050565b604051806040016040528060008152602001610b566040518060a00160405280606081526020016060815260200160608152602001606081526020016000151581525090565b905290565b508054610b67906110f1565b6000825580601f10610b77575050565b601f016020900490600052602060002090810190610b959190610c0c565b50565b5080546000825590600052602060002090810190610b959190610c21565b828054828255906000526020600020908101928215610bfc579160200282015b82811115610bfc5782518290610bec90826111fa565b5091602001919060010190610bd6565b50610c08929150610c21565b5090565b5b80821115610c085760008155600101610c0d565b80821115610c08576000610c358282610b5b565b50600101610c21565b60008060408385031215610c5157600080fd5b50508035926020909101359150565b6000815180845260005b81811015610c8657602081850181015186830182015201610c6a565b506000602082860101526020601f19601f83011685010191505092915050565b6000815160a08452610cbb60a0850182610c60565b905060208084015185830382870152610cd48382610c60565b92505060408401518583036040870152610cee8382610c60565b925050606084015185830360608701528281518085528385019150838160051b860101848401935060005b82811015610d4757601f19878303018452610d35828651610c60565b94860194938601939150600101610d19565b5060808801519550610d5d60808a018715159052565b98975050505050505050565b6000606082016060835280865180835260808501915060808160051b8601019250602080890160005b83811015610dd457878603607f190185528151805187528301516040848801819052610dc081890183610ca6565b975050509382019390820190600101610d92565b5050850196909652506040909201929092529392505050565b600060208284031215610dff57600080fd5b5035919050565b634e487b7160e01b600052604160045260246000fd5b60405160a0810167ffffffffffffffff81118282101715610e3f57610e3f610e06565b60405290565b604051601f8201601f1916810167ffffffffffffffff81118282101715610e6e57610e6e610e06565b604052919050565b600082601f830112610e8757600080fd5b813567ffffffffffffffff811115610ea157610ea1610e06565b610eb4601f8201601f1916602001610e45565b818152846020838601011115610ec957600080fd5b816020850160208301376000918101602001919091529392505050565b600082601f830112610ef757600080fd5b8135602067ffffffffffffffff80831115610f1457610f14610e06565b8260051b610f23838201610e45565b9384528581018301938381019088861115610f3d57600080fd5b84880192505b85831015610d5d57823584811115610f5b5760008081fd5b610f698a87838c0101610e76565b8352509184019190840190610f43565b8035801515811461072c57600080fd5b600060a08284031215610f9b57600080fd5b610fa3610e1c565b9050813567ffffffffffffffff80821115610fbd57600080fd5b610fc985838601610e76565b83526020840135915080821115610fdf57600080fd5b610feb85838601610e76565b6020840152604084013591508082111561100457600080fd5b61101085838601610e76565b6040840152606084013591508082111561102957600080fd5b5061103684828501610ee6565b60608301525061104860808301610f79565b608082015292915050565b60006020828403121561106557600080fd5b813567ffffffffffffffff81111561107c57600080fd5b61108884828501610f89565b949350505050565b600080604083850312156110a357600080fd5b82359150602083013567ffffffffffffffff8111156110c157600080fd5b6110cd85828601610f89565b9150509250929050565b6020815260006110ea6020830184610ca6565b9392505050565b600181811c9082168061110557607f821691505b60208210810361112557634e487b7160e01b600052602260045260246000fd5b50919050565b634e487b7160e01b600052603260045260246000fd5b60006001820161116157634e487b7160e01b600052601160045260246000fd5b5060010190565b60208082526021908201527f4f6e6c79206f776e65722063616e2063616c6c20746869732066756e6374696f6040820152603760f91b606082015260800190565b601f8211156111f5576000816000526020600020601f850160051c810160208610156111d25750805b601f850160051c820191505b818110156111f1578281556001016111de565b5050505b505050565b815167ffffffffffffffff81111561121457611214610e06565b6112288161122284546110f1565b846111a9565b602080601f83116001811461125d57600084156112455750858301515b600019600386901b1c1916600185901b1785556111f1565b600085815260208120601f198616915b8281101561128c5788860151825594840194600190910190840161126d565b50858210156112aa5787850151600019600388901b60f8161c191681555b5050505050600190811b0190555056fea2646970667358221220bd9e79eef2760d72fb58a66d55d3d9be76d79b24ba52aa01083cbeb82b93caa564736f6c63430008180033",
    "linkReferences": {}
  },
  "methodIdentifiers": {
    "addRoute((string,string,string,string[],bool))": "9de8db3e",
    "deleteRoute(uint256)": "9693c4a4",
    "getRoute(uint256)": "fa66358a",
    "getRoutes(uint256,uint256)": "694227e0",
    "head()": "8f7dcfa3",
    "updateRoute(uint256,(string,string,string,string[],bool))": "d53afddd"
  },
  "id": 23
}