{
  "abi": [
    {
      "type": "constructor",
      "inputs": [],
      "stateMutability": "nonpayable"
    },
    {
      "type": "function",
      "name": "addRoute",
      "inputs": [
        {
          "name": "route",
          "type": "tuple",
          "internalType": "struct RouteAddData",
          "components": [
            {
              "name": "command",
              "type": "string",
              "internalType": "string"
            },
            {
              "name": "name",
              "type": "string",
              "internalType": "string"
            },
            {
              "name": "url",
              "type": "string",
              "internalType": "string"
            },
            {
              "name": "description",
              "type": "string",
              "internalType": "string"
            },
            {
              "name": "subRoutes",
              "type": "string[]",
              "internalType": "string[]"
            }
          ]
        }
      ],
      "outputs": [
        {
          "name": "",
          "type": "tuple",
          "internalType": "struct Route",
          "components": [
            {
              "name": "command",
              "type": "string",
              "internalType": "string"
            },
            {
              "name": "name",
              "type": "string",
              "internalType": "string"
            },
            {
              "name": "url",
              "type": "string",
              "internalType": "string"
            },
            {
              "name": "description",
              "type": "string",
              "internalType": "string"
            },
            {
              "name": "subRoutes",
              "type": "string[]",
              "internalType": "string[]"
            },
            {
              "name": "isValue",
              "type": "bool",
              "internalType": "bool"
            },
            {
              "name": "routeType",
              "type": "uint8",
              "internalType": "enum RouteType"
            }
          ]
        }
      ],
      "stateMutability": "nonpayable"
    },
    {
      "type": "function",
      "name": "deleteRoute",
      "inputs": [
        {
          "name": "command",
          "type": "string",
          "internalType": "string"
        }
      ],
      "outputs": [],
      "stateMutability": "nonpayable"
    },
    {
      "type": "function",
      "name": "getRoute",
      "inputs": [
        {
          "name": "command",
          "type": "string",
          "internalType": "string"
        }
      ],
      "outputs": [
        {
          "name": "",
          "type": "tuple",
          "internalType": "struct Route",
          "components": [
            {
              "name": "command",
              "type": "string",
              "internalType": "string"
            },
            {
              "name": "name",
              "type": "string",
              "internalType": "string"
            },
            {
              "name": "url",
              "type": "string",
              "internalType": "string"
            },
            {
              "name": "description",
              "type": "string",
              "internalType": "string"
            },
            {
              "name": "subRoutes",
              "type": "string[]",
              "internalType": "string[]"
            },
            {
              "name": "isValue",
              "type": "bool",
              "internalType": "bool"
            },
            {
              "name": "routeType",
              "type": "uint8",
              "internalType": "enum RouteType"
            }
          ]
        }
      ],
      "stateMutability": "view"
    },
    {
      "type": "function",
      "name": "getRoutes",
      "inputs": [
        {
          "name": "cursor",
          "type": "string",
          "internalType": "string"
        },
        {
          "name": "n",
          "type": "uint256",
          "internalType": "uint256"
        }
      ],
      "outputs": [
        {
          "name": "",
          "type": "tuple[]",
          "internalType": "struct Route[]",
          "components": [
            {
              "name": "command",
              "type": "string",
              "internalType": "string"
            },
            {
              "name": "name",
              "type": "string",
              "internalType": "string"
            },
            {
              "name": "url",
              "type": "string",
              "internalType": "string"
            },
            {
              "name": "description",
              "type": "string",
              "internalType": "string"
            },
            {
              "name": "subRoutes",
              "type": "string[]",
              "internalType": "string[]"
            },
            {
              "name": "isValue",
              "type": "bool",
              "internalType": "bool"
            },
            {
              "name": "routeType",
              "type": "uint8",
              "internalType": "enum RouteType"
            }
          ]
        },
        {
          "name": "",
          "type": "uint256",
          "internalType": "uint256"
        },
        {
          "name": "",
          "type": "string",
          "internalType": "string"
        }
      ],
      "stateMutability": "view"
    },
    {
      "type": "function",
      "name": "updateRoute",
      "inputs": [
        {
          "name": "command",
          "type": "string",
          "internalType": "string"
        },
        {
          "name": "route",
          "type": "tuple",
          "internalType": "struct RouteUpdateData",
          "components": [
            {
              "name": "name",
              "type": "string",
              "internalType": "string"
            },
            {
              "name": "url",
              "type": "string",
              "internalType": "string"
            },
            {
              "name": "description",
              "type": "string",
              "internalType": "string"
            },
            {
              "name": "subRoutes",
              "type": "string[]",
              "internalType": "string[]"
            }
          ]
        }
      ],
      "outputs": [],
      "stateMutability": "nonpayable"
    }
  ],
  "bytecode": {
    "object": "0x60806040523480156200001157600080fd5b50600080546001600160a01b03191633179055604080518082018252600280825261723360f01b60208084018290528451808601865292835282015291519091600191620000609190620000ff565b9081526040805160209281900383019020600160009081529252902090620000899082620001d7565b5060405180604001604052806002815260200161723360f01b815250600160405180604001604052806002815260200161723360f01b815250604051620000d19190620000ff565b908152604080516020928190038301902060008080529252902090620000f89082620001d7565b50620002a3565b6000825160005b8181101562000122576020818601810151858301520162000106565b506000920191825250919050565b634e487b7160e01b600052604160045260246000fd5b600181811c908216806200015b57607f821691505b6020821081036200017c57634e487b7160e01b600052602260045260246000fd5b50919050565b601f821115620001d2576000816000526020600020601f850160051c81016020861015620001ad5750805b601f850160051c820191505b81811015620001ce57828155600101620001b9565b5050505b505050565b81516001600160401b03811115620001f357620001f362000130565b6200020b8162000204845462000146565b8462000182565b602080601f8311600181146200024357600084156200022a5750858301515b600019600386901b1c1916600185901b178555620001ce565b600085815260208120601f198616915b82811015620002745788860151825594840194600190910190840162000253565b5085821015620002935787850151600019600388901b60f8161c191681555b5050505050600190811b01905550565b611cd880620002b36000396000f3fe608060405234801561001057600080fd5b50600436106100575760003560e01c80631b5f03a61461005c5780638721189c146100855780638b167096146100985780639255818d146100ba578063a458c129146100cf575b600080fd5b61006f61006a3660046113e9565b6100e2565b60405161007c919061159f565b60405180910390f35b61006f61009336600461164c565b6104d0565b6100ab6100a6366004611749565b61083b565b60405161007c9392919061178e565b6100cd6100c83660046113e9565b610a8d565b005b6100cd6100dd36600461180c565b610def565b6100ea6111b8565b604080518082019091526002815261723360f01b602091820152825190830120600090600080516020611c83833981519152146104b257600283604051610131919061190c565b90815260200160405180910390206040518060e001604052908160008201805461015a90611928565b80601f016020809104026020016040519081016040528092919081815260200182805461018690611928565b80156101d35780601f106101a8576101008083540402835291602001916101d3565b820191906000526020600020905b8154815290600101906020018083116101b657829003601f168201915b505050505081526020016001820180546101ec90611928565b80601f016020809104026020016040519081016040528092919081815260200182805461021890611928565b80156102655780601f1061023a57610100808354040283529160200191610265565b820191906000526020600020905b81548152906001019060200180831161024857829003601f168201915b5050505050815260200160028201805461027e90611928565b80601f01602080910402602001604051908101604052809291908181526020018280546102aa90611928565b80156102f75780601f106102cc576101008083540402835291602001916102f7565b820191906000526020600020905b8154815290600101906020018083116102da57829003601f168201915b5050505050815260200160038201805461031090611928565b80601f016020809104026020016040519081016040528092919081815260200182805461033c90611928565b80156103895780601f1061035e57610100808354040283529160200191610389565b820191906000526020600020905b81548152906001019060200180831161036c57829003601f168201915b5050505050815260200160048201805480602002602001604051908101604052809291908181526020016000905b828210156104635783829060005260206000200180546103d690611928565b80601f016020809104026020016040519081016040528092919081815260200182805461040290611928565b801561044f5780601f106104245761010080835404028352916020019161044f565b820191906000526020600020905b81548152906001019060200180831161043257829003601f168201915b5050505050815260200190600101906103b7565b50505090825250600582015460ff8082161515602084015260409092019161010090910416600181111561049957610499611476565b60018111156104aa576104aa611476565b9052506104ba565b6104ba610f13565b90508060a001516104ca57600080fd5b92915050565b6104d86111b8565b6000546001600160a01b0316331461050b5760405162461bcd60e51b815260040161050290611962565b60405180910390fd5b81516105169061112a565b1561056d5760405162461bcd60e51b815260206004820152602160248201527f526f757465207769746820636f6d6d616e6420616c72656164792065786973746044820152607360f81b6064820152608401610502565b60006040518060e001604052808460000151815260200184602001518152602001846040015181526020018460600151815260200184608001518152602001600115158152602001600060018111156105c8576105c8611476565b905283516040805180820182526002815261723360f01b6020820152905192935090916001916105f79161190c565b90815260408051918290036020908101832060008080529152209060019061062090849061190c565b90815260408051602092819003830190206000808052925290209061064590826119f3565b508060018060405180604001604052806002815260200161723360f01b815250604051610672919061190c565b908152604080519182900360209081018320600080805291522061069591611ad4565b90815260408051602092819003830190206001600090815292529020906106bc9082611b4a565b5060405180604001604052806002815260200161723360f01b8152506001826040516106e8919061190c565b908152604080516020928190038301902060016000908152925290209061070f9082611b4a565b5080600160405180604001604052806002815260200161723360f01b81525060405161073b919061190c565b9081526040805160209281900383019020600080805292529020906107609082611b4a565b5081600282604051610772919061190c565b9081526040519081900360200190208151819061078f9082611b4a565b50602082015160018201906107a49082611b4a565b50604082015160028201906107b99082611b4a565b50606082015160038201906107ce9082611b4a565b50608082015180516107ea916004840191602090910190611207565b5060a082015160058201805491151560ff1983168117825560c08501519261ff001990911661ffff199091161761010083600181111561082c5761082c611476565b02179055509295945050505050565b60606000606060008467ffffffffffffffff81111561085c5761085c6112e6565b60405190808252806020026020018201604052801561089557816020015b6108826111b8565b81526020019060019003908161087a5790505b506040805160208082019092526000908190528851918901919091209192509081907fc5d2460186f7233c927e7db2dcc703c0e500b653ca82273b7bfad8045d85a470146108e357876108ff565b60405180604001604052806002815260200161723360f01b8152505b90505b61090b816100e2565b83838151811061091d5761091d611c04565b6020026020010181905250600181604051610938919061190c565b90815260408051602092819003830190206001600090815292529020805461095f90611928565b80601f016020809104026020016040519081016040528092919081815260200182805461098b90611928565b80156109d85780601f106109ad576101008083540402835291602001916109d8565b820191906000526020600020905b8154815290600101906020018083116109bb57829003601f168201915b5050505050905081806109ea90611c1a565b604080518082019091526002815261723360f01b602091820152835190840120909350600080516020611c838339815191521480159150610a2a57508682105b61090257604080518082019091526002815261723360f01b602091820152815190820120600090600080516020611c8383398151915214610a6b5781610a7c565b604051806020016040528060008152505b939992985092965090945050505050565b6000546001600160a01b03163314610ab75760405162461bcd60e51b815260040161050290611962565b610ac08161112a565b610adc5760405162461bcd60e51b815260040161050290611c41565b610ae58161118f565b15610b325760405162461bcd60e51b815260206004820152601e60248201527f43616e6e6f742064656c657465206120726573657276656420726f75746500006044820152606401610502565b6000600182604051610b44919061190c565b90815260408051602092819003830190206000808052925290208054610b6990611928565b80601f0160208091040260200160405190810160405280929190818152602001828054610b9590611928565b8015610be25780601f10610bb757610100808354040283529160200191610be2565b820191906000526020600020905b815481529060010190602001808311610bc557829003601f168201915b505050505090506000600183604051610bfb919061190c565b908152604080516020928190038301902060016000908152925290208054610c2290611928565b80601f0160208091040260200160405190810160405280929190818152602001828054610c4e90611928565b8015610c9b5780601f10610c7057610100808354040283529160200191610c9b565b820191906000526020600020905b815481529060010190602001808311610c7e57829003601f168201915b5050505050905080600183604051610cb3919061190c565b9081526040805160209281900383019020600160009081529252902090610cda9082611b4a565b5081600182604051610cec919061190c565b908152604080516020928190038301902060008080529252902090610d119082611b4a565b50600183604051610d22919061190c565b9081526040805160209281900383019020600080805292528120610d459161125d565b600183604051610d55919061190c565b90815260408051602092819003830190206001600090815292528120610d7a9161125d565b600283604051610d8a919061190c565b9081526040519081900360200190206000610da5828261125d565b610db360018301600061125d565b610dc160028301600061125d565b610dcf60038301600061125d565b610ddd60048301600061129a565b50600501805461ffff19169055505050565b6000546001600160a01b03163314610e195760405162461bcd60e51b815260040161050290611962565b610e228261112a565b610e3e5760405162461bcd60e51b815260040161050290611c41565b8051604051600290610e5190859061190c565b90815260200160405180910390206001019081610e6e9190611b4a565b508060200151600283604051610e84919061190c565b90815260200160405180910390206002019081610ea19190611b4a565b508060400151600283604051610eb7919061190c565b90815260200160405180910390206003019081610ed49190611b4a565b508060600151600283604051610eea919061190c565b90815260200160405180910390206004019080519060200190610f0e929190611207565b505050565b610f1b6111b8565b60408051600480825260a08201909252600091816020015b6060815260200190600190039081610f3357905050905060405180604001604052806013815260200172073657475703a3a25303030302f23736574757606c1b81525081600081518110610f8957610f89611c04565b60200260200101819052506040518060400160405280601381526020017218589bdd5d0e8e894c0c0c0c0bc8d8589bdd5d606a1b81525081600181518110610fd357610fd3611c04565b6020026020010181905250604051806040016040528060168152602001756e65773a3a25303030302f23726f757465732f6e657760501b8152508160028151811061102057611020611c04565b60200260200101819052506040518060400160405280601f81526020017f7365617263683a3a25303030302f23726f757465732f656469742f25404040008152508160038151811061107457611074611c04565b6020908102919091018101919091526040805161012081018252600260e0820190815261723360f01b610100830152815281518083018352600b81526a726f75743372204d656e7560a81b818501528184015281518083018352600681526525303030302f60d01b81850152818301528151808301909252600f82526e54686520726f75743372206d656e7560881b9282019290925260608201526080810191909152600160a0820181905260c0820152919050565b604080518082019091526002815261723360f01b602091820152815190820120600090600080516020611c8383398151915214806104ca5750600282604051611173919061190c565b9081526040519081900360200190206005015460ff1692915050565b6000600161119c836100e2565b60c0015160018111156111b1576111b1611476565b1492915050565b6040518060e0016040528060608152602001606081526020016060815260200160608152602001606081526020016000151581526020016000600181111561120257611202611476565b905290565b82805482825590600052602060002090810192821561124d579160200282015b8281111561124d578251829061123d9082611b4a565b5091602001919060010190611227565b506112599291506112b4565b5090565b50805461126990611928565b6000825580601f10611279575050565b601f01602090049060005260206000209081019061129791906112d1565b50565b508054600082559060005260206000209081019061129791905b808211156112595760006112c8828261125d565b506001016112b4565b5b8082111561125957600081556001016112d2565b634e487b7160e01b600052604160045260246000fd5b60405160a0810167ffffffffffffffff8111828210171561131f5761131f6112e6565b60405290565b6040516080810167ffffffffffffffff8111828210171561131f5761131f6112e6565b604051601f8201601f1916810167ffffffffffffffff81118282101715611371576113716112e6565b604052919050565b600082601f83011261138a57600080fd5b813567ffffffffffffffff8111156113a4576113a46112e6565b6113b7601f8201601f1916602001611348565b8181528460208386010111156113cc57600080fd5b816020850160208301376000918101602001919091529392505050565b6000602082840312156113fb57600080fd5b813567ffffffffffffffff81111561141257600080fd5b61141e84828501611379565b949350505050565b60005b83811015611441578181015183820152602001611429565b50506000910152565b60008151808452611462816020860160208601611426565b601f01601f19169290920160200192915050565b634e487b7160e01b600052602160045260246000fd5b600281106114aa57634e487b7160e01b600052602160045260246000fd5b9052565b6000815160e084526114c360e085018261144a565b9050602080840151858303828701526114dc838261144a565b925050604084015185830360408701526114f6838261144a565b92505060608401518583036060870152611510838261144a565b925050608084015185830360808701528281518085528385019150838160051b860101848401935060005b8281101561156957601f1987830301845261155782865161144a565b9486019493860193915060010161153b565b5060a0880151955061157f60a08a018715159052565b60c0880151955061159360c08a018761148c565b98975050505050505050565b6020815260006115b260208301846114ae565b9392505050565b600082601f8301126115ca57600080fd5b8135602067ffffffffffffffff808311156115e7576115e76112e6565b8260051b6115f6838201611348565b938452858101830193838101908886111561161057600080fd5b84880192505b858310156115935782358481111561162e5760008081fd5b61163c8a87838c0101611379565b8352509184019190840190611616565b60006020828403121561165e57600080fd5b813567ffffffffffffffff8082111561167657600080fd5b9083019060a0828603121561168a57600080fd5b6116926112fc565b8235828111156116a157600080fd5b6116ad87828601611379565b8252506020830135828111156116c257600080fd5b6116ce87828601611379565b6020830152506040830135828111156116e657600080fd5b6116f287828601611379565b60408301525060608301358281111561170a57600080fd5b61171687828601611379565b60608301525060808301358281111561172e57600080fd5b61173a878286016115b9565b60808301525095945050505050565b6000806040838503121561175c57600080fd5b823567ffffffffffffffff81111561177357600080fd5b61177f85828601611379565b95602094909401359450505050565b6000606082016060835280865180835260808501915060808160051b8601019250602080890160005b838110156117e557607f198887030185526117d38683516114ae565b955093820193908201906001016117b7565b50505050508460208401528281036040840152611802818561144a565b9695505050505050565b6000806040838503121561181f57600080fd5b823567ffffffffffffffff8082111561183757600080fd5b61184386838701611379565b9350602085013591508082111561185957600080fd5b908401906080828703121561186d57600080fd5b611875611325565b82358281111561188457600080fd5b61189088828601611379565b8252506020830135828111156118a557600080fd5b6118b188828601611379565b6020830152506040830135828111156118c957600080fd5b6118d588828601611379565b6040830152506060830135828111156118ed57600080fd5b6118f9888286016115b9565b6060830152508093505050509250929050565b6000825161191e818460208701611426565b9190910192915050565b600181811c9082168061193c57607f821691505b60208210810361195c57634e487b7160e01b600052602260045260246000fd5b50919050565b60208082526021908201527f4f6e6c79206f776e65722063616e2063616c6c20746869732066756e6374696f6040820152603760f91b606082015260800190565b601f821115610f0e576000816000526020600020601f850160051c810160208610156119cc5750805b601f850160051c820191505b818110156119eb578281556001016119d8565b505050505050565b8181036119fe575050565b611a088254611928565b67ffffffffffffffff811115611a2057611a206112e6565b611a3481611a2e8454611928565b846119a3565b6000601f821160018114611a685760008315611a505750848201545b600019600385901b1c1916600184901b178455611acd565b600085815260209020601f19841690600086815260209020845b83811015611aa25782860154825560019586019590910190602001611a82565b5085831015611ac05781850154600019600388901b60f8161c191681555b50505060018360011b0184555b5050505050565b6000808354611ae281611928565b60018281168015611afa5760018114611b0f57611b3e565b60ff1984168752821515830287019450611b3e565b8760005260208060002060005b85811015611b355781548a820152908401908201611b1c565b50505082870194505b50929695505050505050565b815167ffffffffffffffff811115611b6457611b646112e6565b611b7281611a2e8454611928565b602080601f831160018114611ba75760008415611b8f5750858301515b600019600386901b1c1916600185901b1785556119eb565b600085815260208120601f198616915b82811015611bd657888601518255948401946001909101908401611bb7565b5085821015611bf45787850151600019600388901b60f8161c191681555b5050505050600190811b01905550565b634e487b7160e01b600052603260045260246000fd5b600060018201611c3a57634e487b7160e01b600052601160045260246000fd5b5060010190565b60208082526021908201527f526f757465207769746820636f6d6d616e6420646f6573206e6f7420657869736040820152601d60fa1b60608201526080019056fe1b05cae7fa573d4ea363e3992ff634c1a2fddbb1e1152057d1b57afb1080c9bba26469706673582212204a2c3230c130e379f9929020ae4bd3228edc8bc2943f81c0198641468be116c664736f6c63430008180033",
    "linkReferences": {}
  },
  "methodIdentifiers": {
    "addRoute((string,string,string,string,string[]))": "8721189c",
    "deleteRoute(string)": "9255818d",
    "getRoute(string)": "1b5f03a6",
    "getRoutes(string,uint256)": "8b167096",
    "updateRoute(string,(string,string,string,string[]))": "a458c129"
  },
  "id": 23
}